:0E2DE0008C8A88868482808D8B89878583818A
:092DBE0007390E04070A0C00009D
:022BCD008F1067
:102BCF00E4F511122E19E5101392B6E510C313F5A3
:102BDF0010D2B7122E19C2B7122E190511E511C353
:042BEF00940840DF27
:012BF30022BF
:102BF4008F0D8D0EC2B5122DEEC2B7122DEED2B5C9
:102C0400122DEEAF0D122BCDAF0E122BCDC2B5127D
:072C14002DEED2B6D2B7226B
:02299A008F0D9F
:10299C00E4F50FC2B5122DEEC2B7122DEED2B5D2A0
:1029AC00B6122DEEAF0D122BCDE4F50EE50FC313C1
:1029BC00F50FC2B730B605430F80800100D2B712B5
:1029CC002E19050EE50EC3940840E1C2B5122DEE8A
:0B29DC00C2B7122DEED2B7D2B6AF0F7B
:0129E70022CD
:102B5200E4FD7F8E122BF4E4F50CE50C902DE0934E
:102B6200FF7439250CF8E6FD122BF4050CE50CC3B5
:0B2B7200940740E67D807F8E022BF46C
:102CC100E4F50CE50C902DE793FF12299A74322557
:0D2CD1000CF8A607050CE50CC3940740E6BF
:012CDE0022D3
:092DEE00000000000000000022BA
:062E190000000000002291
:092DF700C2B5C2B7D2B6022DEE3E
:1026C300122D18E4F55375C0FFE4F552122895E472
:1026D300F552E5517019122E1F122C61122D92E53D
:1026E30047B44603755201E4F547E552B401E7E503
:1026F30051B40103120444E551B4021D12263DC234
:10270300A9C28C122C61122D92E547B4460375526F
:1027130001E4F547E552B401E3E551640370AA7F90
:1027230064122DA8E4F5C0C2AB7587020000000057
:1027330000000000007F64122DA875C0FFD2AB809B
:01274300880D
:102D18007594FF7592FF7596FF75B4FF122D4B12CF
:0A2D28002E12122DF7C2A9C28C2250
:062DC70004451111111179
:102D4B00538EBF53890F438920758B48758D48C2AD
:082D5B008FD28ED2ABD2AF2261
:072E1200D288D2A8D2AF2242
:102D9200D2A8E544B40106122A68E4F544E540B439
:062DA2000103E4F54022EC
:03001B00020006DA
:030006000541327F
:102A68007E01E4FDE4FCEFC313FF74002EF582E45D
:102A78003400F583E0D3940F40034307800E0CBC69
:102A880008E474452DF8A6070DBD04D8754001D299
:012A9800A895
:012A9900221A
:030003000229E8E7
:1029E800C0E0C083C082C0D0E5436401702FE541D8
:1029F800D39450400375420074002542F582E434B4
:102A080000F583E541F07541000542E542B4211324
:102A1800754200754300754401C2A88006754301DC
:0C2A2800754100D0D0D082D083D0E032C5
:102C3F00D2B3000000000020B317AF51122A342086
:102C4F00B30F20B307AF51122A3480F605515351F9
:022C5F0003224E
:102C6100D2B4000000000020B4167F0A122DA82063
:102C7100B40E30B4FD7F0A122DA830B4FD75520197
:012C81002230
:102B7D00D2B3000000000020B31D7F0A122DA82043
:102B8D00B31530B3FD7F0A122DA830B3FD0553E503
:082B9D0053B40203E4F55322D6
:102C8200D2B3000000000020B3157F0A122DA82045
:102C9200B30D30B3FD7F05122DA830B3FD055422CC
:102BA5003C42819D9191423C708ABAAA7207050008
:102BB5003C187E8195A9817E3C42023C40423C0006
:082BC500010204081020408009
:10289500AF51122A34122C3F122C61122D92E547AA
:1028A500B447020551E547B4450BE551700575512F
:1028B5000380021551535103E547B40C03E4F55168
:1028C500E547B41803755101E547B45E0375510238
:1028D500E547B40803755103E547B446037552014E
:0A28E500E4F547E552640170A722F4
:102A3400EF75F008A4F509E4F508E4F580E50890DD
:102A44002BC593F590E509902BA593F5A07580010E
:102A540005097F1E122E00E4F5800508E508C394DD
:032A64000840D750
:012A6700224C
:102DA800755916755A80EFD394004009D55AFDD548
:062DB80059FA1F80F12210
:092E0000755A1ED55AFDDFFB22B4
:101485000444547F54DC24040000000000000000E4
:1014950000007F55547E010000007F49497F000010
:1014A500207E2228003E2A3E1020DF11109C52216A
:1014B5003004FA3115987F54003E0408103E0000B0
:1014C5000020100E1020000000E0A0A0A0E0000009
:1014D500004040404040000000E080E020E0000087
:1014E50000E020E020E00000002020E0A0A00000B7
:1014F50000E020E080E0000000E0A0E080E00000E7
:101505000020202020E0000000E0A0E0A0E0000096
:1015150000E020E0A0E00000000E0A0A0A0E00002C
:101525000004040404040000000E080E020E00006E
:10153500000E020E020E00000002020E0A0A000052
:10154500000E020E080E0000000E0A0E080E000026
:1015550000020202020E0000000E0A0E0A0E000032
:10156500000E020E0A0E000000E0A0A0A0E00000A0
:10157500004040404040000000E020E080E00000E6
:1015850000E020E020E0000000A0A0E02020000016
:1015950000E080E020E00000000E0A0A0A0E0000CC
:1015A5000004040404040000000E020E080E0000EE
:1015B500000E020E020E0000000A0A0E02020000D2
:1015C500000E080E020E0000000E080E0A0E0000A6
:1015D500000E020202020000000E0A0E0A0E0000B2
:1015E500000E0A0E020E00000070505050700000F0
:1015F50000202020202000000070407010700000A6
:101605000070107010700000001010705050000035
:101615000070107040700000000705050507000008
:101625000002020202020000000704070107000091
:10163500000701070107000000010107050500007B
:10164500000701070407000000070507040700005D
:10165500000101010107000000070507050700005B
:10166500000701070507000001020408102040805B
:062E1F00122CC102100B91
:10044400E4F50BF552F547122CC1E4F50874322596
:1004540008F8E6FF74392508F8A6070508E508B486
:1004640007EBE50B60030204F4E539540FF509E5E5
:1004740039C4540FF50A75F00AA42509F554122C51
:1004840082122D92E547B407021554E547B41502CC
:100494000554E4F547E554B4FF03755463E554B4D7
:1004A4006403E4F554E55475F00A8485F009E554D1
:1004B40075F00A84F50AC454F02509F539E4FF12ED
:1004C400235E122D92122C61E547B44502150BE50B
:1004D40047B44702050BE552B40102050BE4F5529B
:1004E400E50BB40703E4F50BE50BB4FF03750B064A
:1004F400E50BB40102050BE50B6402600302058AF7
:10050400E53B540FF509E53BC4540FF50A75F00AB1
:10051400A42509F554122C82122D92E547B4070242
:100524001554E547B415020554E4F547E554700342
:1005340075540CE554B40D03755401E55475F00A73
:100544008485F009E55475F00A84F50AC454F0254D
:1005540009F53B7F0212235E122D92122C61E547AE
:10056400B44502150BE547B44702050BE552B40147
:1005740002050BE4F552E50BB40703E4F50BE50BB8
:10058400B4FF03750B06E50B64036003020619E56B
:100594003C540FF509E53CC4540FF50A75F00AA460
:1005A4002509F554122C82122D92E547B407021541
:1005B40054E547B415020554E4F547E55470037552
:1005C400541FE554B42003755401E55475F00A84AE
:1005D40085F009E55475F00A84F50AC454F0250938
:1005E400F53C7F0312235E122D92122C61E547B471
:1005F4004502150BE547B44702050BE552B4010269
:10060400050BE4F552E50BB40703E4F50BE50BB475
:10061400FF03750B06E50B640460030206A9E53DC0
:10062400540FF509E53DC4540FF50A75F00AA425E5
:1006340009F554122C82122D92E547B40702155481
:10064400E547B415020554E4F547E554B4FF0375D2
:100654005417E554B41803E4F554E55475F00A84CA
:1006640085F009E55475F00A84F50AC454F02509A7
:10067400F53D7F0412235E122D92122C61E547B4DE
:100684004502150BE547B44702050BE552B40102D8
:10069400050BE4F552E50BB40703E4F50BE50BB4E5
:1006A400FF03750B06E50B64056003020739E53E9D
:1006B400540FF509E53EC4540FF50A75F00AA42554
:1006C40009F554122C82122D92E547B407021554F1
:1006D400E547B415020554E4F547E554B4FF037542
:1006E400543BE554B43C03E4F554E55475F00A84F2
:1006F40085F009E55475F00A84F50AC454F0250917
:10070400F53E7F0512235E122D92122C61E547B44B
:100714004502150BE547B44702050BE552B4010247
:10072400050BE4F552E50BB40703E4F50BE50BB454
:10073400FF03750B06E50B64066003020828E53F1A
:10074400540FF509E53FC4540FF50A75F00AA425C2
:1007540009F554122C82122D92E547B40702155460
:10076400E547B415020554E4F547E554B4FF0375B1
:10077400543BE554B43C03E4F554E55475F00A8461
:1007840085F009E55475F00A84F50AC454F0250986
:10079400F53F7F0612235E122D92122C61E547B4B9
:1007A4004502150BE547B44702050BE55264017099
:1007B40063F552755407E554C3940A40030208478D
:1007C400E55475F008A4F50BE4F508759080E50888
:1007D40090166D93F5A0E50B90148593F580050BA9
:1007E4000508E508B408E47F1E122E0075A0FFE496
:1007F400F580F590122C82E554B409037554071260
:100804002C61E552B401AFE554B40803122B5275C0
:10081400540B80A2E50BB40703E4F50BE50BB4FF1E
:1008240003750B06122C61E55264016016122D92B9
:10083400E547B40D03022B52E54764466003020406
:0308440066F5470F
:01084700228E
:10235E0074392FF8E6FE540FF50DEEC4540FF50E3A
:10236E00E50D75F008A4F50DE50E75F008A4F50E53
:10237E00EF75F008A4F50FE4F50C75A0FFE4F580F9
:10238E0000000000E50C90166D93F590E50D90158C
:10239E001D93FFE50E9014CD934FF5A075800100AF
:1023AE00000000050E050DE4F5A07F1E122E00752F
:1023BE00A0FFE4F580F5A00000050CE50CC3940722
:1023CE0040B8E4F50C759080E50C90166D93F5A071
:1023DE00E50F90148593F580050F050CE50CB408F8
:0E23EE00E47F1E122E0075A0FFE4F580F5902E
:0123FC0022BE
:10100B00E4F509122B7D122D92E54764437021F50F
:10101B0047F5C0C2AB7F64122DA875870200000094
:10102B000000000000007F64122DA875C0FFD2AB3A
:10103B00E547B40905E4F5470553E553B40203E46A
:10104B00F553E5536003021148E536540FF50AE5F5
:10105B0036C4540FF50BE537540FF50CE537C45474
:10106B000FF50DE538540FF50EE538C4540FF50F99
:10107B00E50A75F008A4F50AE50B75F008A4F50B65
:10108B00E50C75F008A4F50CE50D75F008A4F50D4D
:10109B00E50E75F008A4F50EE50F75F008A4F50F35
:1010AB00E4F50875A0FFE4F580F5A000000000E56D
:1010BB000890166D93F590E50C90161D93FFE50DBA
:1010CB009015ED934FF5A075800100000000000016
:1010DB000000050D050C75A08000000000E50A90CE
:1010EB00151D93FFE50B9014CD934FF580050B0564
:1010FB000AE4F5A07F1E122E0075A0FFE4F580F523
:10110B00A000000508E508C394074097E4F50875AF
:10111B009080E50890166D93F5A0E50E90159D93C4
:10112B00FFE50F90156D934FF580050E050F050824
:10113B00E508B408DA7F1E122E00E4F590E553643F
:10114B00016003021245E534540FF50AE534C4542B
:10115B000FF50BE535540FF50CE535C4540FF50DB4
:10116B00E532540FF50EE532C4540FF50FE50A7551
:10117B00F008A4F50AE50B75F008A4F50BE50C7562
:10118B00F008A4F50CE50D75F008A4F50DE50E754A
:10119B00F008A4F50EE50F75F008A4F50FE4F508BB
:1011AB0075A0FFE4F580F5A000000000E50890169F
:1011BB006D93F590E50C90161D93FFE50D9015EDD5
:1011CB00934FF5A0758001000000000000000005A2
:1011DB000D050C75A08000000000E50A90151D930D
:1011EB00FFE50B9014CD934FF580050B050AE4F545
:1011FB00A07F1E122E0075A0FFE4F580F5A0000065
:10120B000508E508C394074097E4F508759080E559
:10121B000890166D93F5A0E50E90159D93FFE50FC5
:10122B0090156D934FF580050E050F0508E508B475
:10123B0008DA7F1E122E00E4F5900509E509C39428
:06124B0008500302100E22
:01125100227A
:1019AF005151514A4A4A4444181C18181818183CE7
:1019BF003C666630180C06F63C6660386060663C24
:1019CF0030383C3E367E30303C3C181818183C3CC2
:1019DF0000183C7EFFFFFF66003C7E66666666660B
:1019EF000601020303050406070800090805060798
:1019FF00080981FF8100FF81817E00FF898900F83E
:101A0F002727F8008F8989F900FF8181FF00FF09DF
:101A1F00090901000101FF0101000020406080A0C1
:101A2F00C0E0E4E8ECF0F4F8FCDCBC9C7C5C3C1C13
:101A3F001814100C080425456585A5C5C9CDD1D549
:101A4F00D9B99979593935312D294A6A8AAAAEB24D
:101A5F00B6967656524E6F8F93736F8F93734A6A03
:101A6F008AAAAEB2B6967656524E25456585A5C55D
:101A7F00C9CDD1D5D9B99979593935312D29002009
:101A8F00406080A0C0E0E4E8ECF0F4F8FCDCBC9C23
:101A9F007C5C3C1C1814100C08040020406080A0D3
:101AAF00C0E0E4E8ECF0F4F8FCDCBC9C7C5C3C1C93
:101ABF001814100C0804000102030405061626363C
:101ACF004656666564636261605040302010FF893E
:101ADF00F59393F589FF0E1F3F7E7E3F1F0E183C37
:101AEF007EFF1818181800010223050607060523A4
:031AFF00020100E1
:032DCD00015F00A3
:062E2500E4F58AD28C22C4
:082E09007F077E02DEFEDFFA06
:012E1100229E
:072CFD00122CDF7F107E277F
:102D0400AD07AC06ED1DAE0470011C4E6005122E1D
:042D14000980F1221F
:102D32007401A805088002C333D8FC5207EF60046F
:082D42007E018002E4FEAF06F1
:012D4A002266
:102D7B00EF75F00A84FE75F00AA4FDC3EF9DC394B2
:062D8B000540010EAF0639
:012D9100221F
:0D000E00C3EF648094805004EFF404FF22DF
:062ACC008B208A21892203
:102AD200AB23AA24A925122121FFAB20AA21A922D6
:102AE200122121FED39F400EEF12213AAB23AA24DA
:062AF200A925EE12213AB5
:012AF80022BB
:0F2DD100EFC39D5002AF05EFC39B5002AF03222B
:102D6300E4FEE4FDEE75F008A424602DF8A6070D3B
:072D7300BD08F10EBE08EBE4
:012D7A002236
:042945008F828E836C
:102949007A06C3EA6480947D4046EA6480948040B4
:102959001CE4FBEB75F008A424612AF8E6FFEB758B
:10296900F008A424602AF8A6070BBB08E6C3EA64AA
:102979008094845011E4FBEB75F008A424642AF8D0
:10298900E4F60BBB08F1AF82AE83122D041A80B2B4
:01299900221B
:102B26007401A807088002C333D8FCFFF4FEE53120
:102B3600600DEB75F008A424602DF8E64FF622EB45
:0B2B460075F008A424602DF8E65EF690
:012B51002261
:102AF900E4FEEF75F008A424AFF582E43419F583F8
:102B0900E5822EF582E43583F583E493FCEE75F0D6
:0C2B190008A424602DF8A6040EBE08D607
:012B2500228D
:09282B00E50824FEFF7B01E4FD39
:04283400AE07A9033F
:10283800EEFB3395E0FAC3EB9480EA648094805011
:10284800047F0180027F00C3EE6480948040047B93
:102858000180027B00EF5B6033ED6007C3747F9EED
:10286800FC8002AC06EC901A2993FDC4135407FFB0
:10287800ED13135407FDEC935403FBD3EE648094DB
:0C288800BF400474079BFB8931122B2613
:012894002221
:101B0200740A2509F8E6FF75F01C8485F014E514C3
:101B1200901AA993FEC4135407F512EE1313540737
:101B2200F513EF24F2FFE434FFFE7C007D1C12214A
:101B32005E8D14E51493FFC4135407F515EF1313C8
:101B42005407F516851523F524850925752601AB5D
:051B520009AD13AF1204
:061B5700A907AE03AC0576
:101B5D00C3E52399F52BC3E5249CF52CC3E5259E00
:101B6D00F52DAF2B12000EAA07AF2C12000EAD07EC
:101B7D00AF2D12000EAB07AF02122DD18F27E975D5
:101B8D00F00AA4F528EC75F00AA4F529EE75F00A13
:101B9D00A4F52AAF2BEF3395E0FE7C007D0A1221D0
:101BAD004CE527FB3395E0FAAD03FC1221B38F2BE7
:101BBD00AF2CEF3395E0FE7C007D0A12214CAD0376
:101BCD00AC021221B38F2CAF2DEF3395E0FE7C00CC
:101BDD007D0A12214CAD27ED3395E0FC1221B38F18
:101BED002DE4FAC3E5276480F8EA6480985034AF99
:101BFD0028122D7BC007AF29122D7BAC07AF2A12FF
:101C0D002D7BAB07852631AD04D007122B26E52B96
:101C1D002528F528E52C2529F529E52D252AF52A50
:0F1C2D000A80C0852631AB25AD24AF23022B26BC
:10125200740A2509F8E675F0188485F010E51090F7
:101262001AC593FFC4540FF50EEF540FF50FE50E98
:1012720004F51AE50F04F51B751C01751D01751E99
:0712820001E4FBAD0FAF0E0C
:061289008F178D188B1970
:10128F00E4F51FF52375240075251AFB7A007917ED
:10129F00122ACC75230075240075251B7B007A005C
:1012AF007918122ACC75230075240075251C7B0034
:1012BF007A007919122ACCAF17EFD3951A50107400
:1012CF0001A807088002C333D8FC421F0F80EAE54C
:1012DF001E7003631FFFE51D6050E51E6026AF19EA
:1012EF00EFD3951C4003021484AC18ECD3951B501C
:1012FF0010EC75F008A424602FF8E51F46F60C805B
:10130F00EA0F80DCAF19EFD3951C4003021484ACB5
:10131F0018ECD3951B5010EC75F008A424602FF82F
:10132F00E51F56F60C80EA0F80DCE51E603EE518DF
:10133F0075F008A424602519F8E51F46F6E51B751E
:10134F00F008A424602519F8E51F46F6E51875F096
:10135F0008A42460251CF8E51F46F6E51B75F00868
:10136F00A42460251CF8E51F46F6803CE51875F0AF
:10137F0008A424602519F8E51F56F6E51B75F0083B
:10138F00A424602519F8E51F56F6E51875F008A492
:10139F002460251CF8E51F56F6E51B75F008A424FC
:1013AF0060251CF8E51F56F6AE1A7401A8060880D2
:1013BF0002C333D8FCFEAD177401A805088002C321
:1013CF0033D8FC4EF51FE51E7003631FFFE51E604B
:1013DF0052AC19ECD3951C5021AF18EFD3951B507D
:1013EF0010EF75F008A424602CF8E51F46F60F8067
:1013FF00EAC3E51C95192CFC80D9AC18ECD3951BCE
:10140F005073AF19EFD3951C5010EC75F008A4244E
:10141F00602FF8E51F46F60F80EAC3E51B95182CE1
:10142F00FC80D9AC19ECD3951C5021AF18EFD39594
:10143F001B5010EF75F008A424602CF8E51F56F62A
:10144F000F80EAC3E51C95192CFC80D9AC18ECD39E
:10145F00951B5021AF19EFD3951C5010EC75F00868
:10146F00A424602FF8E51F56F60F80EAC3E51B95FD
:05147F00182CFC80D9CF
:011484002245
:1022AE00744D254CF8E6FDC37407954CF51A8D1B3D
:0C22BE00F51CE4F51D751E01AB4CAF4C87
:0622CA008F178D188B191F
:1022D00075230075240075251C7B007A007919127E
:1022E0002ACCE51D602385191FE51FD3951C506D71
:1022F000851A23851B24851F25851E26AB1FAD1837
:10230000AF17121B57051F80E0851A23851B2485F4
:102310001925851E26AB19AD18AF17121B57851A44
:1023200023851B24851C25851E26AB1CAD18AF17E5
:10233000121B57851A23851B24851C25851E26AB59
:1023400019AD1BAF1A121B57851723851824851C3E
:0D23500025851E26AB19AD18AF17121B57BF
:01235D00225D
:062CA2008F5EAC03AA05E1
:102CA800E4F9AD01AF5E122D328F31AF02AD04AB46
:082CB80001122B2609B908EAFC
:012CC00022F1
:102496008F5C8D5DC3E55C6480948040047F018021
:1024A600027F00C3E55C6480948850047E0180024C
:1024B6007E00EE5F600DC37407955CFBE4FDAF5DC7
:1024C600122CA2C3E55C6480948840047F018002DC
:1024D6007F00C3E55C6480949050047E0180027E98
:1024E60000EE5F600CE55C24F8FDE4FBAF5D122CAA
:1024F600A2C3E55C6480949040047F0180027F0063
:10250600C3E55C6480949850047E0180027E00EEF0
:102516005F600CE55C24F0FB7D07AF5D122CA22208
:0428EF008E558F561D
:1028F300755817D3E558648094584045E4F557E577
:10290300582557FFC36480948040047E0180027E73
:1029130000C3EF6480949850047D0180027D00ED34
:102923005E600AE557901A0193FD1224960557E558
:1029330057C3942840C9AF56AE55122D041558807D
:01294300B2E1
:012944002270
:10204D007D107C277F011220807D107C277F02125E
:10205D0020807D107C277F031220807D107C27E45B
:10206D00FF1220807D107C277F011220807D107C47
:03207D00277F02B8
:042080008D828C833E
:10208400EF607C24FE602F1460542402600302215C
:1020940020E4FBEB75F008A42467F8E4F6EBFFC337
:1020A40074069FFF74982FF876FFAF82AE83122DCB
:1020B400040BBB07DE22E4FBEBFFC374079FFF7432
:1020C400982FF8E4F6C374069B75F008A42460F80E
:1020D40076FFAF82AE83122D040BBB07DB22E4FB39
:1020E400C374079B75F008A42460F8E4F674612BAC
:1020F400F876FFAF82AE83122D040BBB07E222E415
:10210400FB74602BF8E4F6EB75F008A4246FF87602
:0C211400FFAF82AE83122D040BBB07E569
:01212000229C
:061C3C007D107C277F01F2
:041C42008D828C8380
:101C4600EF7003021D1A24FE6049147003021CD9AA
:101C560024026003021D56E4F517E4F523851724D4
:101C6600752507F526FBAD17FF121B57E51704FF71
:101C7600F523752407752507752601E4FB7D0712F4
:101C86001B57AF82AE83122D040517E517C39407C1
:101C960040C822E4F517851723752407752507E440
:101CA600F526FB7D07AF17121B57C374069517FD64
:101CB600752307F524752507752601E4FB7F0712B2
:101CC6001B57AF82AE83122D040517E517C3940781
:101CD60040C422E4F517C374079517FD752307F56D
:101CE60024752507E4F526FB7F07121B57C37406E8
:101CF6009517FFF523E4F524752507752601FBFDE9
:101D0600121B57AF82AE83122D040517E517C39435
:101D16000740C322E4F517C374079517FFF523E4BC
:101D2600F524752507F526FBFD121B57E51704FD5F
:101D3600E4F5238D24752507752601FBFF121B5735
:101D4600AF82AE83122D040517E517C3940740C76B
:011D5600226A
:0D184D007F307E75122D04AD0AAC097F01BD
:04185A008C0B8D0C5A
:10185E00EF700302195F24FE605914700302190E13
:10186E00240260030219AEE4F50D751A07C374075E
:10187E00950DF51B751C07751D01751E01E4FBAD5D
:10188E000DFF1222CAAF0CAE0B122D04E50DC39440
:10189E00075016E4F51A850D1B751C07751D01F50D
:1018AE001EFB7D037F031222CA050DE50DC39408AE
:1018BE0040B822E4F50DC37407950DFF850D1A751A
:1018CE001B07751C07751D01751E01E4FBFD122219
:1018DE00CAAF0CAE0B122D04E50DC394075017853D
:1018EE000D1A751B07751C07751D01E4F51EFB7D92
:1018FE00047F031222CA050DE50DC3940840B722DA
:10190E00E4F50D751A07C37407950DF51B751C07C5
:10191E00751D01751E01E4FBAD0DFF1222CAAF0C41
:10192E00AE0B122D04E50DC39407501B751A07C399
:10193E007407950DF51B751C07751D01E4F51EFB4F
:10194E007D047F041222CA050DE50DC3940840B331
:10195E0022E4F50DC37407950DFF850D1A751B074F
:10196E00751C07751D01751E01E4FBFD1222CAAF21
:10197E000CAE0B122D04E50DC39407501AC3740759
:10198E00950DF51AE4F51B751C07751D01F51EFB6B
:10199E007D037F041222CA050DE50DC3940840B4E1
:0119AE002216
:062A9A008F0AAB05AA043F
:102AA000E4F50BE4FFE50A75F008A424602FF8C0F4
:102AB00000E6C313D000F60FBF08EAAF03AE021260
:0B2AC0002D04050BE50BC3940840D863
:012ACB0022E8
:0621E9008F098C0A8D0B2A
:1021EF00E4F50DF50CE50CC394075018E50C04FF4E
:1021FF00F51A751B07751C07751D01751E01E4FB8C
:10220F00FD1222CA850D1A751B07751C07751D0156
:10221F00E4F51EFBFDAF0D1222CAE4FFE50C04F539
:10222F000DE4FEEED3950C50107401A80608800241
:10223F00C333D8FC42070E80EAE4FEEE75F008A423
:10224F002463F9E50975F008A424AFF582E4341985
:10225F00F583E5822EF582E43583F583E4935F47BA
:10226F00F7EE75F008A42463F9E50975F008A424C6
:10227F00AFF582E43419F583E5822EF582E43583D8
:10228F00F583E4935F47F70EBE08B0AF0BAE0A12AB
:0E229F002D04050CE50CC3940850030221F435
:0122AD00220E
:102CDF00E4FFE4FEEF75F008A424602EF8C000E6D0
:0D2CEF0025E0D000F60EBE08EB0FBF08E593
:012CFC0022B5
:1027C000E4FF122D63E4FD0F122AF97F607EEA1206
:1027D0002D04E4FD7F02122AF97F607EEA122D04A7
:1027E000E4FD7F03122AF97F607EEA122D04E4FDE6
:1027F0007F04122AF97F607EEA122D047F607EEA50
:10280000122D04E4FF122D637F307E751228EF7DB8
:1028100007E4FF122AF97F607EEA122D047F707EA2
:0B282000171229457F607EEA022D049C
:1023FD0075088112282B7F407E1F122D04E50814CD
:10240D00FFE4FBFD1228341508E508D3940050E3D2
:10241D007F407E1F122D04E4F5087B017D01AF087E
:10242D001228347F407E1F122D04E50824F8FFE4A6
:10243D00FB7D011228340508E508C3948840DB7F35
:10244D00407E1F122D0475088112282B7F407E1FA0
:10245D00122D041508E508D3940050ED7F407E1F22
:10246D00122D04E4F508E50824F8FFE4FB7D0112C4
:10247D0028347F407E1F122D040508E508C3948083
:09248D0040E47F607EEA022D04A8
:101F6B00E4F508751A0785081B751C07751D0175A7
:101F7B001E01E4FBAD08FF1222CA7F207E4E122DFC
:101F8B0004C3E508648094875016751A0785081BEF
:101F9B00751C07751D01E4F51EFBAD08FF1222CA67
:101FAB000508C3E5086480948840B8750807751A5E
:101FBB000785081B751C07751D01751E01E4FBAD1C
:101FCB0008FF1222CA7F207E4E122D04D3E508642F
:101FDB008094804016751A0785081B751C07751DA4
:101FEB0001E4F51EFBAD08FF1222CA1508C3E50874
:101FFB006480948050B8E4F508751A0785081B7542
:10200B001C07751D01751E01E4FBAD08FF1222CAEA
:10201B007F207E4E122D04C3E508648094875016F2
:10202B00751A0785081B751C07751D01E4F51EFB4A
:10203B00AD08FF1222CA0508C3E5086480948840E6
:01204B00B8DC
:01204C002271
:1016750075090774032509F8A6090509E509B40FD5
:10168500F2E4F508E4F509740A2509F8E6FFC364F0
:1016950080948040047E0180027E00C3EF648094C4
:1016A5008850047F0180027F00EF5E6019740A256F
:1016B50009F8E6FD752307F524850925752601AB8F
:1016C50009E4FF121B570509C3E5096480948840A6
:1016D500B6E4F509740A2509F8E6FFFD3395E0FC43
:1016E500ED2401FDE43CFCC3ED9408EC648094809A
:1016F50050047E0180027E00C3EF64809480400424
:101705007F0180027F00EE5F6019740A2509F8E603
:1017150004FD752307F524850925E4F526AB09FFA6
:10172500121B570509C3E5096480948840A6E4F5B2
:1017350009740A2509F8E6D3648094804006740A82
:101745002509F8160509E509B408E67F987E3A12D9
:101755002D040508D3E5086480949050030216898A
:10176500E4F509C374019509FF740A2509F8A6076C
:101775000509E509B408ECE4F508E4F509740A255A
:1017850009F8E6FFC36480948040047E0180027EF0
:1017950000C3EF6480948850047F0180027F00EFCE
:1017A5005E6019740A2509F8E6FD752307F5248599
:1017B5000925752601AB09E4FF121B570509C3E589
:1017C500096480948840B6E4F509740A2509F8E6A9
:1017D500FF14C36480948750047E0180027E00D389
:1017E500EF6480948040047F0180027F00EE5F609B
:1017F50019740A2509F8E614FD752307F5248509EA
:1018050025E4F526AB09FF121B570509C3E5096455
:1018150080948840B5E4F509740A2509F8E6C3649F
:101825008094875006740A2509F8060509E509B468
:1018350008E67F987E3A122D040508D3E5086480F2
:071845009490500302177F8D
:01184C002279
:10001E0075493A754A98754B08754C077446254CC8
:10002E00F8A64C054CE54CB40BF2AF4B154BEF60FC
:10003E0069E4F54C744D254CF8E6C3648094885001
:10004E00031222AE744D254CF8E6FFC364809487EC
:10005E005016EF04FDC37407954CF51A8D1BF51C55
:10006E00E4F51DF51E1222C6054CC3E54C648094C2
:10007E008440C1E4F54C744D254CF8E6D36480946D
:10008E00834006744D254CF816054CE54CB404E639
:10009E00AF4AAE49122D04020038754B03E4F54CFD
:1000AE00C37405954CFF744D254CF8A607054CE519
:1000BE004CB404ECAF4B154BEF6069754C01744DAD
:1000CE00254CF8E6C36480948450031222AE744D1E
:1000DE00254CF8E6FFC3648094835016EF04FDC3ED
:1000EE007407954CF51A8D1BF51CE4F51DF51E12C3
:1000FE0022C6054CC3E54C6480948440C1E4F54CA3
:10010E00744D254CF8E6D3648094804006744D25DA
:10011E004CF816054CE54CB404E6AF4AAE49122D28
:10012E00040200C2754B03754C01C37404954CFF59
:10013E00744D254CF8A607054CE54CB404ECAF4BBA
:10014E00154BEF6068754C01744D254CF8E6C36491
:10015E0080948040031222AE744D254CF8E6FFD3F6
:10016E00648094804015EF14FD7407954CF51A8D3C
:10017E001BF51CE4F51DF51E1222C6054CC3E54CFD
:10018E006480948440C2754C01744D254CF8E6C3CE
:10019E00648094835006744D254CF806054CE54C4E
:1001AE00B404E6AF4AAE49122D0402014C754B035E
:1001BE00E4F54CE54C04FF744D254CF8A607054CB0
:1001CE00E54CB404EEAF4B154BEF605B754C017410
:1001DE004D254CF8E6D36480948340031222AE740E
:1001EE004D254CF8E6FFD3648094834015EF14FD43
:1001FE007407954CF51A8D1BF51CE4F51DF51E12B2
:10020E0022C6054CC3E54C6480948440C2E4F54C90
:10021E00744D254CF806054CE54CB404F3AF4AAECC
:10022E0049122D040201D3754B03754C03744B25F3
:10023E004CF8A64C054CE54CB406F2AF4B154BEF03
:10024E006052754C011222AE744D254CF8E604FD39
:10025E00C37407954CF51A8D1BF51CE4F51DF51EA0
:10026E001222C6054CC3E54C6480948440D7E4F555
:10027E004C744D254CF8E6D3648094834006744D3F
:10028E00254CF816054CE54CB404E6AF4AAE4912BF
:10029E002D0480A7754B03E4F54CC37405954CFFF4
:1002AE00744D254CF8A607054CE54CB404ECAF4B49
:1002BE00154BEF6069754C01744D254CF8E6C3641F
:1002CE0080948450031222AE744D254CF8E6FFC381
:1002DE00648094835016EF04FDC37407954CF51A91
:1002EE008D1BF51CE4F51DF51E1222C6054CC3E54B
:1002FE004C6480948440C1E4F54C744D254CF8E672
:10030E00D3648094804006744D254CF816054CE558
:10031E004CB404E6AF4AAE49122D040202BC754B32
:10032E0003E4F54CC37403954CFF744D254CF8A6AD
:10033E0007054CE54CB404EC754D02AF4B154BEF75
:10034E00606BE4F54C744D254CF8E6C364809480E4
:10035E0040031222AE744D254CF8E6FFC364809420
:10036E00804015EF04FD7407954CF51A8D1BF51C96
:10037E00E4F51DF51E1222C6054CC3E54C648094AF
:10038E008340C2E4F54CC37405954BC36480F8E515
:10039E004C6480985006744D254CF816054CE54C6F
:1003AE00B404E3AF4AAE49122D04020349754B0A59
:1003BE00E4F54CE54C24FEFF744D254CF8A60705DC
:1003CE004CE54CB404EDAF4B154BEF6068E4F54CC7
:1003DE00744D254CF8E6C36480948040031222AE1F
:1003EE00744D254CF8E6FFC3648094804015EF14DD
:1003FE00FD7407954CF51A8D1BF51CE4F51DF51EC5
:10040E001222C6054CC3E54C6480948440C2E4F5C8
:10041E004C744D254CF8E6C3648094875006744D99
:10042E00254CF806054CE54CB404E6AF4AAE49122D
:05043E002D040203D4AF
:010443002296
:1025B20012204D7D107C277F03122080E4F508E471
:1025C200F509E4F9E50875F008A424DDF582E434A0
:1025D2001AF583E5822509F582E43583F583E493D0
:1025E200FFA801088002C313D8FC30E02E7A01C391
:1025F200740799FDAB02753101AF09122B26EA145B
:10260200FB600DC3740799FDE4F531AF09122B2667
:102612007F887E13122D040ABA08D409B908A505C9
:1026220009E509C39408409A7D987C3A7F07122AEB
:0A2632009A0508E508C394034085EB
:01263C00227B
:101D570075090B750AB87D107C27E4FF12208012E5
:101D6700204D12205F7D107C27E4FF121C42121CBD
:101D77003C7D107C277F02121C427D107C277F034D
:101D8700121C427D107C27E4FF121C42121C3C7D72
:101D9700107C277F02121C427D107C277F03121CB8
:101DA70042E4F508C374079508F51A85081B751CE6
:101DB70007751D01751E01E4FBAD08FF1222CAAFAE
:101DC7000AAE09122D040508E508C3940840D57F1B
:101DD700307E75122D04AD0AAC09E4FF12185A12B1
:101DE700184D7F307E75122D04AD0AAC097F0212A3
:101DF700185A7F307E75122D04AD0AAC097F031285
:101E0700185A7F307E75122D04AD0AAC09E4FF1213
:101E1700185A12184D7F307E75122D04AD0AAC0981
:101E27007F0212185A7F307E75122D04AD0AAC0955
:101E37007F0312185A75080785081A751B07751C42
:101E470007751D01E4F51EFBFDAF081222CAAF0A94
:0E1E5700AE09122D041508E508D3940050DAE8
:011E6500225A
:102C1B007508057D107C27AF081221E97F607EEADD
:102C2B00122D047F607EEA122D040508E508C3947B
:032C3B000840E06E
:012C3E002273
:10084800E4F50885081A751B07751C07751D0175E1
:100858001E01E4FBFDAF081222CAE508601514FF6B
:10086800F51A751B07751C07751D01E4F51EFBFDC0
:100878001222CA122D000508C3E508648094884036
:10088800C27D107C277F03121C427D107C27E4FF69
:10089800121C42121C3CE4F508C374069508FDFFBF
:1008A800C374069508F523F524752507752601E414
:1008B800FB121B57850823752407752507E4F526C1
:1008C800FB7D07AF08121B57122D000508C3E5086A
:1008D8006480948740C3E4F508740A2508F8760E06
:1008E8000508E508B408F2E4F508E4FF122D63E40E
:1008F800F509121B020509E509C3940840F4E4F55B
:1009080009AD08ED3395E0FCD3ED95097480F86CDA
:100918009840047F0180027F00E50824B9D36480F1
:10092800F8E50964809840047E0180027E00EF5E4D
:100938006006740A2509F8060509E509B408C27FA6
:10094800887E13122D040508C3E508648094D540F9
:1009580099E4F508E4FF122D63E4F509121B02057A
:1009680009E509C3940840F4E4F509AD08ED3395A9
:10097800E0FCD3ED95097480F86C9840047F018001
:10098800027F00E50824B9D36480F8E509648098FB
:1009980040047E0180027E00EF5E6006740A25092D
:1009A800F8160509E509B408C27F887E13122D04DC
:1009B8000508C3E508648094D54099E4F508E4FF88
:1009C800122D63E50A75F01C8485F014E514901A5D
:1009D800A993FFC4135407F512EF13135407F51323
:1009E800E50A24F2FFE434FFFE7C007D1C12215E40
:1009F8008D14E51493FFC4135407F515EF1313541E
:100A080007F51685151AF51B751C07E4F51D751EE7
:100A180001FBAD13AF121222CA85151A85161B7574
:100A28001C06E4F51D751E017B01AD13AF121222E1
:100A3800CA050A7F887E13122D040508C3E50864D9
:100A480080949D50030209C6E4F508E4FF122D6363
:100A5800E50A75F01C8485F014E514901AA993FF33
:100A6800C4135407F512EF13135407F513E50A24BA
:100A7800F2FFE434FFFE7C007D1C12215E8D14E53C
:100A88001493FFC4135407F515EF13135407F51601
:100A980085151AF51B751C07751D01751E01E4FBEC
:100AA800AD13AF121222CA150A7F887E13122D04C5
:100AB8000508C3E508648094904090E4F508E4F5DF
:100AC80023F524850825F526FBAD08AF08121B572A
:100AD8007F887E13122D040508C3E5086480948876
:100AE80040DC750801752307752407850825E4F59A
:100AF800267B07AD08AF08121B577F887E13122D7F
:100B0800040508C3E5086480948740D9750801E4A2
:100B1800FF122D63C374079508F51AF51BC37407F4
:100B28009508F51CE4F51D751E017B077D077F07F9
:100B3800121289122D000508C3E5086480948840C4
:100B4800CE750801E4FF122D63C374079508F51AE2
:100B5800F51BC374079508F51CE4F51D751E01FB0C
:100B6800FD121289122D000508C3E50864809487D8
:100B780040D2750801E4FF122D6385081A85081B09
:100B880085081CE4F51D751E01FBFD121289122D46
:100B9800000508C3E5086480948840D9750801E415
:100BA800FF122D6385081AC374079508F51BF51CF9
:100BB800E4F51D751E01FBFD7F07121289122D0039
:100BC8000508C3E5086480948740D4750801C37498
:100BD800079508F51A85081B85081C751D01751EE3
:100BE80001E4FBFD7F07121289122D000508C3E5F9
:100BF800086480948840D7750801E4FF122D63C308
:100C080074079508F51A85081B85081C751D01755C
:100C18001E017B077D07121289122D000508C3E506
:070C2800086480948740D3AB
:010C2F0022A2
:100C3000750801E4FF122D63751A01751B07751CF9
:100C400007751D01751E017B067D06121289C3748E
:100C5000069508FBE50804F51A751B07C37407958C
:100C600008F51C751D01751E017D06AF081212895D
:100C7000E50804F51A751B07751C07751D01751E1F
:100C8000017B067D06AF08121289C374069508FB26
:100C9000751A01751B07C374079508F51C751D01AE
:100CA000751E017D06E4FF121289C374069508FDC6
:100CB000751A01C374079508F51B751C07751D018E
:100CC000751E017B06E4FF121289C374069508FBAA
:100CD000FDE50804F51AC374079508F51BF51C75A6
:100CE0001D01751E01AF08121289C374069508FD17
:100CF000E50804F51AC374079508F51B751C0775FC
:100D00001D01751E017B06AF08121289C37406957A
:100D100008FBFD751A01C374079508F51BF51C75D2
:100D20001D01751E01E4FF1212897F307E75122DA0
:100D3000040508E508C394075003020C33E4F508E2
:100D4000E50875F006A4FF740A2508F8A60705084B
:100D5000E508B404EBE4F508E4FF122D63E4F509BB
:100D6000121252E50E04F51AE50F04F51B751C0767
:100D7000751D01751E017B061212850509E509C363
:100D8000940440DCE4F509740A2509F8060509E530
:100D900009B404F3122D000508E508C3942340B8F4
:100DA000E4F508E4FF122D63E4F509121252E50E92
:100DB00004F51AE50F04F51B751C07751D01751E5A
:100DC000017B061212850509E509C3940440DCE4A1
:100DD000F509740A2509F8160509E509B404F312A2
:100DE0002D000508E508C3942340B8E4F508E4FFA6
:100DF000122D63E4F509740A2509F8E675F01884E4
:100E000085F010E510901AC593FFC4540FF50EEF4E
:100E1000540FF50FE50E04F51A751B01E50F04F5E7
:100E20001C751D01751E01AB0FE4FDAF0E1212897A
:100E3000E50E04F51A751B07E50F04F51C751D0179
:100E4000751E01AB0F7D06AF0E1212890509E5096B
:100E5000C3940440A1E4F509740A2509F8060509BC
:100E6000E509B404F3122D000508E508C3942350E6
:100E700003020DEEE4F508E4FF122D63E4F50974B6
:100E80000A2509F8E675F0188485F010E510901A27
:100E9000C593FFC4540FF50EEF540FF50FE50E0484
:100EA000F51A751B01E50F04F51C751D01751E0172
:100EB000AB0FE4FDAF0E121289E50E04F51A751B97
:100EC00007E50F04F51C751D01751E01AB0F7D06AE
:100ED000AF0E1212890509E509C3940440A1E4F597
:100EE00009740A2509F8160509E509B404F3122D59
:100EF000000508E508C394245003020E7775080620
:100F0000E4FF122D63751A01751B07751C07751D0B
:100F100001751E017B067D06121289C374069508B1
:100F2000FBE50804F51A751B07C374079508F51C43
:100F3000751D01751E017D06AF08121289E50804B2
:100F4000F51A751B07751C07751D01751E017B06BB
:100F50007D06AF08121289C374069508FB751A0145
:100F6000751B07C374079508F51C751D01751E01D7
:100F70007D06E4FF121289C374069508FD751A01F7
:100F8000C374079508F51B751C07751D01751E01B7
:100F90007B06E4FF121289C374069508FBFDE50881
:100FA00004F51AC374079508F51BF51C751D01752A
:100FB0001E01AF08121289C374069508FDE50804E6
:100FC000F51AC374079508F51B751C07751D017587
:100FD0001E017B06AF08121289C374069508FBFD3B
:100FE000751A01C374079508F51BF51C751D01756D
:100FF0001E01E4FF1212897F307E75122D04150840
:0A100000E508D394004003020F003E
:01100A0022C3
:101E6600E4F509E4F508E508901AF593FFC4540F64
:101E76006019EF540FF50A04FBE4F5237524078B6C
:101E860025752601FDFF121B578008E508901AF5F7
:101E960093F50AE4F523752407850A25752601AB13
:101EA6000AFDFF121B57122CFD0508E508C3940D09
:101EB60040B40509E509C3940540A8750901E5097B
:101EC600D394034005750A04800385090AE4F508DE
:101ED600E508C394185038E508901AC593FFC45412
:101EE6000FF50BEF540FF50CE4F51AE50B04F51B93
:101EF600E50C04F51C751D01751E01AB0CAD0BE45C
:101F0600FF1222CA122CFDE5092508F50880C10535
:101F160009E509C3940840A6750901E509D39403A8
:101F26004005750A04800385090AE4F508E508C337
:101F360094185027E508901AC593FFC4540FF50B63
:101F4600EF540FF50C753101FBAD0BE4FF122B2698
:101F5600122CFDE5092508F50880D20509E509C317
:041F6600940840B7E4
:011F6A002254
:10263D00E4F554F552122E25D2A9D28CE4FF122DB9
:10264D0063E554C394124003E4F554E5549019EF37
:10265D009314B40900505690267275F003A4C583E7
:10266D0025F0C5837302268D022692022697022637
:10267D009C0226A10226A60226AB0226B00226B592
:10268D001223FD8028121F6B8023121675801E12D7
:10269D0025B28019121D578014122C1B800F1208A1
:1026AD0048800A120C308005121E668000E4FF126D
:0626BD002D630554808B23
:03000B0002274485
:10274400C0E0C0F0C0D075D000C000C003C004C059
:0527540005C006C007EE
:10275900759000E4FB7401A803088002C333D8FC18
:10276900F5A07F037E00122D04E55F75F008A4240F
:10277900602BF8E6F5807F037E00122D040BBB0861
:10278900D4AF5F7401A807088002C333D8FCF59061
:10279900E55FC394075004055F8003755F00758C7E
:0427A900C0758A006D
:1027AD00D007D006D005D004D003D000D0D0D0F0C3
:0327BD00D0E03237
:03000000022526B0
:0C252600787FE4F6D8FD75819F02256DDA
:10212100BB010689828A83E0225002E722BBFE02BC
:09213100E32289828A83E49322EF
:10213A00BB010689828A83F0225002F722BBFE0184
:02214A00F3227E
:10214C00EF8DF0A4A8F0CF8CF0A428CE8DF0A42EA7
:02215C00FE2261
:10215E00BC000BBE0029EF8DF084FFADF022E4CC65
:10216E00F875F008EF2FFFEE33FEEC33FCEE9DEC2E
:10217E00984005FCEE9DFE0FD5F0E9E4CEFD22ED74
:10218E00F8F5F0EE8420D21CFEADF075F008EF2FBE
:10219E00FFED33FD4007985006D5F0F222C398FDAF
:0521AE000FD5F0EA224C
:1021B300C2D5EC30E709B2D5E4C39DFDE49CFCEE47
:1021C30030E715B2D5E4C39FFFE49EFE12215EC340
:1021D300E49DFDE49CFC800312215E30D507C3E43B
:0621E3009FFFE49EFE22B6
:102532000226C3E493A3F8E493A34003F68001F2D6
:1025420008DFF48029E493A3F85407240CC8C333AA
:10255200C4540F4420C8834004F456800146F6DF79
:10256200E4800B0102040810204080902DBEE47E1E
:10257200019360BCA3FF543F30E509541FFEE4936E
:10258200A360010ECF54C025E060A840B8E493A335
:10259200FAE493A3F8E493A3C8C582C8CAC583CA60
:1025A200F0A3C8C582C8CAC583CADFE9DEE780BE18
:012DD0000002
:00000001FF
